{"abi":[{"type":"function","name":"claimName","inputs":[{"name":"name","type":"string","internalType":"string"}],"outputs":[],"stateMutability":"nonpayable"},{"type":"function","name":"getMyNames","inputs":[{"name":"user","type":"address","internalType":"address"}],"outputs":[{"name":"","type":"string[]","internalType":"string[]"}],"stateMutability":"view"},{"type":"function","name":"getOwner","inputs":[{"name":"name","type":"string","internalType":"string"}],"outputs":[{"name":"","type":"address","internalType":"address"}],"stateMutability":"view"},{"type":"function","name":"releaseName","inputs":[{"name":"name","type":"string","internalType":"string"}],"outputs":[],"stateMutability":"nonpayable"},{"type":"event","name":"NameRegistered","inputs":[{"name":"user","type":"address","indexed":true,"internalType":"address"},{"name":"name","type":"string","indexed":false,"internalType":"string"}],"anonymous":false},{"type":"event","name":"NameReleased","inputs":[{"name":"user","type":"address","indexed":true,"internalType":"address"},{"name":"name","type":"string","indexed":false,"internalType":"string"}],"anonymous":false}],"bytecode":{"object":"0x6080604052348015600e575f5ffd5b50610cc18061001c5f395ff3fe608060405234801561000f575f5ffd5b506004361061004a575f3560e01c80634aaf4a121461004e57806354c25e4b1461007e5780636d67c63e1461009a578063d310bc32146100ca575b5f5ffd5b610068600480360381019061006391906105bc565b6100e6565b6040516100759190610646565b60405180910390f35b610098600480360381019061009391906105bc565b61012e565b005b6100b460048036038101906100af9190610689565b610301565b6040516100c191906107df565b60405180910390f35b6100e460048036038101906100df91906105bc565b610412565b005b5f5f83836040516100f892919061083b565b90815260200160405180910390205f9054906101000a900473ffffffffffffffffffffffffffffffffffffffff16905092915050565b5f73ffffffffffffffffffffffffffffffffffffffff165f838360405161015692919061083b565b90815260200160405180910390205f9054906101000a900473ffffffffffffffffffffffffffffffffffffffff1673ffffffffffffffffffffffffffffffffffffffff16146101da576040517f08c379a00000000000000000000000000000000000000000000000000000000081526004016101d1906108ad565b60405180910390fd5b335f83836040516101ec92919061083b565b90815260200160405180910390205f6101000a81548173ffffffffffffffffffffffffffffffffffffffff021916908373ffffffffffffffffffffffffffffffffffffffff16021790555060015f3373ffffffffffffffffffffffffffffffffffffffff1673ffffffffffffffffffffffffffffffffffffffff1681526020019081526020015f20828290918060018154018082558091505060019003905f5260205f20015f9091929091929091929091925091826102ac929190610b08565b503373ffffffffffffffffffffffffffffffffffffffff167f56a1a2764a85c689329fbc04f299b64690a26b1dc5ac82e903cf8ad805cd539683836040516102f5929190610c01565b60405180910390a25050565b606060015f8373ffffffffffffffffffffffffffffffffffffffff1673ffffffffffffffffffffffffffffffffffffffff1681526020019081526020015f20805480602002602001604051908101604052809291908181526020015f905b82821015610407578382905f5260205f2001805461037c9061092f565b80601f01602080910402602001604051908101604052809291908181526020018280546103a89061092f565b80156103f35780601f106103ca576101008083540402835291602001916103f3565b820191905f5260205f20905b8154815290600101906020018083116103d657829003601f168201915b50505050508152602001906001019061035f565b505050509050919050565b3373ffffffffffffffffffffffffffffffffffffffff165f838360405161043a92919061083b565b90815260200160405180910390205f9054906101000a900473ffffffffffffffffffffffffffffffffffffffff1673ffffffffffffffffffffffffffffffffffffffff16146104be576040517f08c379a00000000000000000000000000000000000000000000000000000000081526004016104b590610c6d565b60405180910390fd5b5f82826040516104cf92919061083b565b90815260200160405180910390205f6101000a81549073ffffffffffffffffffffffffffffffffffffffff02191690553373ffffffffffffffffffffffffffffffffffffffff167fb77b9f89c40061070cfd2545ab555564eed380bea08129c5aa595236b42a92e18383604051610547929190610c01565b60405180910390a25050565b5f5ffd5b5f5ffd5b5f5ffd5b5f5ffd5b5f5ffd5b5f5f83601f84011261057c5761057b61055b565b5b8235905067ffffffffffffffff8111156105995761059861055f565b5b6020830191508360018202830111156105b5576105b4610563565b5b9250929050565b5f5f602083850312156105d2576105d1610553565b5b5f83013567ffffffffffffffff8111156105ef576105ee610557565b5b6105fb85828601610567565b92509250509250929050565b5f73ffffffffffffffffffffffffffffffffffffffff82169050919050565b5f61063082610607565b9050919050565b61064081610626565b82525050565b5f6020820190506106595f830184610637565b92915050565b61066881610626565b8114610672575f5ffd5b50565b5f813590506106838161065f565b92915050565b5f6020828403121561069e5761069d610553565b5b5f6106ab84828501610675565b91505092915050565b5f81519050919050565b5f82825260208201905092915050565b5f819050602082019050919050565b5f81519050919050565b5f82825260208201905092915050565b8281835e5f83830152505050565b5f601f19601f8301169050919050565b5f61071f826106dd565b61072981856106e7565b93506107398185602086016106f7565b61074281610705565b840191505092915050565b5f6107588383610715565b905092915050565b5f602082019050919050565b5f610776826106b4565b61078081856106be565b935083602082028501610792856106ce565b805f5b858110156107cd57848403895281516107ae858261074d565b94506107b983610760565b925060208a01995050600181019050610795565b50829750879550505050505092915050565b5f6020820190508181035f8301526107f7818461076c565b905092915050565b5f81905092915050565b828183375f83830152505050565b5f61082283856107ff565b935061082f838584610809565b82840190509392505050565b5f610847828486610817565b91508190509392505050565b5f82825260208201905092915050565b7f4e616d6520616c726561647920636c61696d65640000000000000000000000005f82015250565b5f610897601483610853565b91506108a282610863565b602082019050919050565b5f6020820190508181035f8301526108c48161088b565b9050919050565b5f82905092915050565b7f4e487b71000000000000000000000000000000000000000000000000000000005f52604160045260245ffd5b7f4e487b71000000000000000000000000000000000000000000000000000000005f52602260045260245ffd5b5f600282049050600182168061094657607f821691505b60208210810361095957610958610902565b5b50919050565b5f819050815f5260205f209050919050565b5f6020601f8301049050919050565b5f82821b905092915050565b5f600883026109bb7fffffffffffffffffffffffffffffffffffffffffffffffffffffffffffffffff82610980565b6109c58683610980565b95508019841693508086168417925050509392505050565b5f819050919050565b5f819050919050565b5f610a09610a046109ff846109dd565b6109e6565b6109dd565b9050919050565b5f819050919050565b610a22836109ef565b610a36610a2e82610a10565b84845461098c565b825550505050565b5f5f905090565b610a4d610a3e565b610a58818484610a19565b505050565b5b81811015610a7b57610a705f82610a45565b600181019050610a5e565b5050565b601f821115610ac057610a918161095f565b610a9a84610971565b81016020851015610aa9578190505b610abd610ab585610971565b830182610a5d565b50505b505050565b5f82821c905092915050565b5f610ae05f1984600802610ac5565b1980831691505092915050565b5f610af88383610ad1565b9150826002028217905092915050565b610b1283836108cb565b67ffffffffffffffff811115610b2b57610b2a6108d5565b5b610b35825461092f565b610b40828285610a7f565b5f601f831160018114610b6d575f8415610b5b578287013590505b610b658582610aed565b865550610bcc565b601f198416610b7b8661095f565b5f5b82811015610ba257848901358255600182019150602085019450602081019050610b7d565b86831015610bbf5784890135610bbb601f891682610ad1565b8355505b6001600288020188555050505b50505050505050565b5f610be08385610853565b9350610bed838584610809565b610bf683610705565b840190509392505050565b5f6020820190508181035f830152610c1a818486610bd5565b90509392505050565b7f4e6f7420746865206f776e6572206f6620746865206e616d65000000000000005f82015250565b5f610c57601983610853565b9150610c6282610c23565b602082019050919050565b5f6020820190508181035f830152610c8481610c4b565b905091905056fea26469706673582212206f99280d4e4720c0013c05eb5b597b89cd7133a6437fc7b22d22e0f5c40adea464736f6c634300081e0033","linkReferences":{}},"methodIdentifiers":{"claimName(string)":"54c25e4b","getMyNames(address)":"6d67c63e","getOwner(string)":"4aaf4a12","releaseName(string)":"d310bc32"},"id":0}